{
  "contractName": "InsuranceClaims",
  "abi": [
    {
      "inputs": [],
      "stateMutability": "nonpayable",
      "type": "constructor"
    },
    {
      "anonymous": false,
      "inputs": [
        {
          "indexed": true,
          "internalType": "uint256",
          "name": "claimId",
          "type": "uint256"
        },
        {
          "indexed": true,
          "internalType": "string",
          "name": "policyId",
          "type": "string"
        }
      ],
      "name": "ClaimSubmitted",
      "type": "event"
    },
    {
      "anonymous": false,
      "inputs": [
        {
          "indexed": true,
          "internalType": "string",
          "name": "policyId",
          "type": "string"
        }
      ],
      "name": "PolicyRegistered",
      "type": "event"
    },
    {
      "inputs": [],
      "name": "claimCount",
      "outputs": [
        {
          "internalType": "uint256",
          "name": "",
          "type": "uint256"
        }
      ],
      "stateMutability": "view",
      "type": "function",
      "constant": true
    },
    {
      "inputs": [
        {
          "internalType": "uint256",
          "name": "",
          "type": "uint256"
        }
      ],
      "name": "claims",
      "outputs": [
        {
          "internalType": "uint256",
          "name": "claimId",
          "type": "uint256"
        },
        {
          "internalType": "string",
          "name": "policyId",
          "type": "string"
        },
        {
          "internalType": "string",
          "name": "description",
          "type": "string"
        },
        {
          "internalType": "string",
          "name": "incidentDate",
          "type": "string"
        },
        {
          "internalType": "uint256",
          "name": "claimAmount",
          "type": "uint256"
        },
        {
          "internalType": "enum InsuranceClaims.ClaimStatus",
          "name": "status",
          "type": "uint8"
        }
      ],
      "stateMutability": "view",
      "type": "function",
      "constant": true
    },
    {
      "inputs": [],
      "name": "docCount",
      "outputs": [
        {
          "internalType": "uint256",
          "name": "",
          "type": "uint256"
        }
      ],
      "stateMutability": "view",
      "type": "function",
      "constant": true
    },
    {
      "inputs": [
        {
          "internalType": "uint256",
          "name": "",
          "type": "uint256"
        }
      ],
      "name": "documents",
      "outputs": [
        {
          "internalType": "uint256",
          "name": "docId",
          "type": "uint256"
        },
        {
          "internalType": "uint256",
          "name": "claimId",
          "type": "uint256"
        },
        {
          "internalType": "string",
          "name": "docName",
          "type": "string"
        },
        {
          "internalType": "enum InsuranceClaims.DocStatus",
          "name": "status",
          "type": "uint8"
        }
      ],
      "stateMutability": "view",
      "type": "function",
      "constant": true
    },
    {
      "inputs": [],
      "name": "owner",
      "outputs": [
        {
          "internalType": "address",
          "name": "",
          "type": "address"
        }
      ],
      "stateMutability": "view",
      "type": "function",
      "constant": true
    },
    {
      "inputs": [
        {
          "internalType": "string",
          "name": "",
          "type": "string"
        }
      ],
      "name": "policies",
      "outputs": [
        {
          "internalType": "string",
          "name": "policyId",
          "type": "string"
        },
        {
          "internalType": "string",
          "name": "insuranceType",
          "type": "string"
        },
        {
          "internalType": "enum InsuranceClaims.PolicyStatus",
          "name": "status",
          "type": "uint8"
        }
      ],
      "stateMutability": "view",
      "type": "function",
      "constant": true
    },
    {
      "inputs": [
        {
          "internalType": "string",
          "name": "",
          "type": "string"
        }
      ],
      "name": "policyExists",
      "outputs": [
        {
          "internalType": "bool",
          "name": "",
          "type": "bool"
        }
      ],
      "stateMutability": "view",
      "type": "function",
      "constant": true
    },
    {
      "inputs": [
        {
          "internalType": "string",
          "name": "_policyId",
          "type": "string"
        },
        {
          "internalType": "string",
          "name": "_insuranceType",
          "type": "string"
        }
      ],
      "name": "registerPolicy",
      "outputs": [],
      "stateMutability": "nonpayable",
      "type": "function"
    },
    {
      "inputs": [
        {
          "internalType": "string",
          "name": "_policyId",
          "type": "string"
        },
        {
          "internalType": "string",
          "name": "_description",
          "type": "string"
        },
        {
          "internalType": "string",
          "name": "_incidentDate",
          "type": "string"
        },
        {
          "internalType": "uint256",
          "name": "_claimAmount",
          "type": "uint256"
        }
      ],
      "name": "submitClaim",
      "outputs": [],
      "stateMutability": "nonpayable",
      "type": "function"
    },
    {
      "inputs": [
        {
          "internalType": "uint256",
          "name": "_claimId",
          "type": "uint256"
        },
        {
          "internalType": "string",
          "name": "_docName",
          "type": "string"
        }
      ],
      "name": "addDocument",
      "outputs": [],
      "stateMutability": "nonpayable",
      "type": "function"
    },
    {
      "inputs": [
        {
          "internalType": "uint256",
          "name": "_claimId",
          "type": "uint256"
        }
      ],
      "name": "approveClaim",
      "outputs": [],
      "stateMutability": "nonpayable",
      "type": "function"
    },
    {
      "inputs": [
        {
          "internalType": "uint256",
          "name": "_claimId",
          "type": "uint256"
        }
      ],
      "name": "rejectClaim",
      "outputs": [],
      "stateMutability": "nonpayable",
      "type": "function"
    },
    {
      "inputs": [
        {
          "internalType": "string",
          "name": "_policyId",
          "type": "string"
        }
      ],
      "name": "checkPolicyStatus",
      "outputs": [
        {
          "internalType": "enum InsuranceClaims.PolicyStatus",
          "name": "",
          "type": "uint8"
        }
      ],
      "stateMutability": "view",
      "type": "function",
      "constant": true
    },
    {
      "inputs": [
        {
          "internalType": "string",
          "name": "_policyId",
          "type": "string"
        }
      ],
      "name": "doesPolicyExist",
      "outputs": [
        {
          "internalType": "bool",
          "name": "",
          "type": "bool"
        }
      ],
      "stateMutability": "view",
      "type": "function",
      "constant": true
    }
  ],
  "bytecode": "0x60806040526000600455600060055534801561001a57600080fd5b50600680546001600160a01b031916331790556111f58061003c6000396000f3fe608060405234801561001057600080fd5b50600436106100ea5760003560e01c80638bfb1d071161008c578063958e3d0011610066578063958e3d00146101f6578063a888c2cd14610209578063af3bd5a71461022e578063c2ed2b051461025c57600080fd5b80638bfb1d07146101af5780638da4d3c9146101c25780638da5cb5b146101cb57600080fd5b806327d3374d116100c857806327d3374d1461014057806346e30135146101635780634a7ba3e5146101765780634c4dc6e01461019857600080fd5b80630e995dac146100ef5780631d26f84214610118578063203411011461012d575b600080fd5b6101026100fd366004610cd0565b61027f565b60405161010f9190610d37565b60405180910390f35b61012b610126366004610d4b565b610319565b005b61012b61013b366004610ddb565b610519565b61015361014e366004610cd0565b61059b565b604051901515815260200161010f565b61012b610171366004610ddb565b6105c6565b610189610184366004610cd0565b61063f565b60405161010f93929190610e44565b6101a160055481565b60405190815260200161010f565b61012b6101bd366004610e79565b61077f565b6101a160045481565b6006546101de906001600160a01b031681565b6040516001600160a01b03909116815260200161010f565b61012b610204366004610ec0565b610844565b61021c610217366004610ddb565b6109a7565b60405161010f96959493929190610f2d565b61015361023c366004610cd0565b805160208183018101805160038252928201919093012091525460ff1681565b61026f61026a366004610ddb565b610b77565b60405161010f9493929190610f8f565b60006003826040516102919190610fc8565b9081526040519081900360200190205460ff166102ed5760405162461bcd60e51b8152602060048201526015602482015274141bdb1a58de48191bd95cc81b9bdd08195e1a5cdd605a1b60448201526064015b60405180910390fd5b6000826040516102fd9190610fc8565b9081526040519081900360200190206002015460ff1692915050565b6003846040516103299190610fc8565b9081526040519081900360200190205460ff1661037a5760405162461bcd60e51b815260206004820152600f60248201526e1ddc9bdb99c81c1bdb1a58de481a59608a1b60448201526064016102e4565b6000808560405161038b9190610fc8565b9081526040519081900360200190206002015460ff1660018111156103b2576103b2610d0d565b146103f35760405162461bcd60e51b8152602060048201526011602482015270506f6c696379206e6f742061637469766560781b60448201526064016102e4565b6004805490600061040383610fe4565b91905055506040518060c0016040528060045481526020018581526020018481526020018381526020018281526020016000600281111561044657610446610d0d565b905260045460009081526001602081815260409092208351815591830151908201906104729082611094565b50604082015160028201906104879082611094565b506060820151600382019061049c9082611094565b506080820151600482015560a082015160058201805460ff191660018360028111156104ca576104ca610d0d565b0217905550506040516104df91508590610fc8565b60405190819003812060045490917f61ada47a5b8f30fca69d0da9156f3b08690ea248822eb78eeffb43590eb636f690600090a350505050565b6006546001600160a01b031633146105435760405162461bcd60e51b81526004016102e490611154565b60008111801561055557506004548111155b6105715760405162461bcd60e51b81526004016102e490611195565b6000818152600160208190526040909120600501805460029260ff1990911690835b021790555050565b60006003826040516105ad9190610fc8565b9081526040519081900360200190205460ff1692915050565b6006546001600160a01b031633146105f05760405162461bcd60e51b81526004016102e490611154565b60008111801561060257506004548111155b61061e5760405162461bcd60e51b81526004016102e490611195565b6000818152600160208190526040909120600501805460ff19168280610593565b80516020818301810180516000825292820191909301209152805481906106659061100b565b80601f01602080910402602001604051908101604052809291908181526020018280546106919061100b565b80156106de5780601f106106b3576101008083540402835291602001916106de565b820191906000526020600020905b8154815290600101906020018083116106c157829003601f168201915b5050505050908060010180546106f39061100b565b80601f016020809104026020016040519081016040528092919081815260200182805461071f9061100b565b801561076c5780601f106107415761010080835404028352916020019161076c565b820191906000526020600020905b81548152906001019060200180831161074f57829003601f168201915b5050506002909301549192505060ff1683565b60008211801561079157506004548211155b6107ad5760405162461bcd60e51b81526004016102e490611195565b600580549060006107bd83610fe4565b9091555050604080516080810182526005548082526020808301868152838501868152600060608601819052938452600292839052949092208351815591516001830155925191929091908201906108159082611094565b50606082015160038201805460ff1916600183600281111561083957610839610d0d565b021790555050505050565b6003826040516108549190610fc8565b9081526040519081900360200190205460ff16156108ac5760405162461bcd60e51b8152602060048201526015602482015274506f6c69637920616c72656164792065786973747360581b60448201526064016102e4565b604080516060810182528381526020810183905290810160008152506000836040516108d89190610fc8565b908152604051908190036020019020815181906108f59082611094565b506020820151600182019061090a9082611094565b50604082015160028201805460ff19166001838181111561092d5761092d610d0d565b021790555090505060016003836040516109479190610fc8565b908152604051908190036020018120805492151560ff1990931692909217909155610973908390610fc8565b604051908190038120907f92dac5ffb17126dbf1f2d9a24de9f36bdb0b54912041d0220229f8b1f2585d9090600090a25050565b6001602081905260009182526040909120805491810180546109c89061100b565b80601f01602080910402602001604051908101604052809291908181526020018280546109f49061100b565b8015610a415780601f10610a1657610100808354040283529160200191610a41565b820191906000526020600020905b815481529060010190602001808311610a2457829003601f168201915b505050505090806002018054610a569061100b565b80601f0160208091040260200160405190810160405280929190818152602001828054610a829061100b565b8015610acf5780601f10610aa457610100808354040283529160200191610acf565b820191906000526020600020905b815481529060010190602001808311610ab257829003601f168201915b505050505090806003018054610ae49061100b565b80601f0160208091040260200160405190810160405280929190818152602001828054610b109061100b565b8015610b5d5780601f10610b3257610100808354040283529160200191610b5d565b820191906000526020600020905b815481529060010190602001808311610b4057829003601f168201915b50505050600483015460059093015491929160ff16905086565b600260208190526000918252604090912080546001820154928201805491939291610ba19061100b565b80601f0160208091040260200160405190810160405280929190818152602001828054610bcd9061100b565b8015610c1a5780601f10610bef57610100808354040283529160200191610c1a565b820191906000526020600020905b815481529060010190602001808311610bfd57829003601f168201915b5050506003909301549192505060ff1684565b634e487b7160e01b600052604160045260246000fd5b600082601f830112610c5457600080fd5b813567ffffffffffffffff80821115610c6f57610c6f610c2d565b604051601f8301601f19908116603f01168101908282118183101715610c9757610c97610c2d565b81604052838152866020858801011115610cb057600080fd5b836020870160208301376000602085830101528094505050505092915050565b600060208284031215610ce257600080fd5b813567ffffffffffffffff811115610cf957600080fd5b610d0584828501610c43565b949350505050565b634e487b7160e01b600052602160045260246000fd5b60028110610d3357610d33610d0d565b9052565b60208101610d458284610d23565b92915050565b60008060008060808587031215610d6157600080fd5b843567ffffffffffffffff80821115610d7957600080fd5b610d8588838901610c43565b95506020870135915080821115610d9b57600080fd5b610da788838901610c43565b94506040870135915080821115610dbd57600080fd5b50610dca87828801610c43565b949793965093946060013593505050565b600060208284031215610ded57600080fd5b5035919050565b60005b83811015610e0f578181015183820152602001610df7565b50506000910152565b60008151808452610e30816020860160208601610df4565b601f01601f19169290920160200192915050565b606081526000610e576060830186610e18565b8281036020840152610e698186610e18565b915050610d056040830184610d23565b60008060408385031215610e8c57600080fd5b82359150602083013567ffffffffffffffff811115610eaa57600080fd5b610eb685828601610c43565b9150509250929050565b60008060408385031215610ed357600080fd5b823567ffffffffffffffff80821115610eeb57600080fd5b610ef786838701610c43565b93506020850135915080821115610f0d57600080fd5b50610eb685828601610c43565b60038110610f2a57610f2a610d0d565b50565b86815260c060208201526000610f4660c0830188610e18565b8281036040840152610f588188610e18565b90508281036060840152610f6c8187610e18565b915050836080830152610f7e83610f1a565b8260a0830152979650505050505050565b848152836020820152608060408201526000610fae6080830185610e18565b9050610fb983610f1a565b82606083015295945050505050565b60008251610fda818460208701610df4565b9190910192915050565b60006001820161100457634e487b7160e01b600052601160045260246000fd5b5060010190565b600181811c9082168061101f57607f821691505b60208210810361103f57634e487b7160e01b600052602260045260246000fd5b50919050565b601f82111561108f57600081815260208120601f850160051c8101602086101561106c5750805b601f850160051c820191505b8181101561108b57828155600101611078565b5050505b505050565b815167ffffffffffffffff8111156110ae576110ae610c2d565b6110c2816110bc845461100b565b84611045565b602080601f8311600181146110f757600084156110df5750858301515b600019600386901b1c1916600185901b17855561108b565b600085815260208120601f198616915b8281101561112657888601518255948401946001909101908401611107565b50858210156111445787850151600019600388901b60f8161c191681555b5050505050600190811b01905550565b60208082526021908201527f4f6e6c79206f776e65722063616e2063616c6c20746869732066756e6374696f6040820152603760f91b606082015260800190565b60208082526010908201526f125b9d985b1a590818db185a5b48125160821b60408201526060019056fea2646970667358221220b6890f3a8c1406f1e55701c5f9389238c983308bfc8e5f832b17e9dbf1063e2d64736f6c63430008150033",
  "immutableReferences": {},
  "source": "// SPDX-License-Identifier: MIT\r\npragma solidity ^0.8.21;\r\n\r\ncontract InsuranceClaims {\r\n    enum PolicyStatus { Active, Inactive }\r\n    enum ClaimStatus { Pending, Approved, Rejected }\r\n    enum DocStatus { PendingVerification, Approved, Rejected }\r\n\r\n    // Structs and Mappings\r\n    struct Policy {\r\n        string policyId;\r\n        string insuranceType;\r\n        PolicyStatus status;\r\n    }\r\n\r\n    struct Claim {\r\n        uint claimId;\r\n        string policyId;\r\n        string description;\r\n        string incidentDate;\r\n        uint claimAmount;\r\n        ClaimStatus status;\r\n    }\r\n\r\n    struct Document {\r\n        uint docId;\r\n        uint claimId;\r\n        string docName;\r\n        DocStatus status;\r\n    }\r\n\r\n    mapping(string => Policy) public policies;\r\n    mapping(uint => Claim) public claims;\r\n    mapping(uint => Document) public documents;\r\n    mapping(string => bool) public policyExists;\r\n\r\n    // State variables\r\n    uint public claimCount = 0;\r\n    uint public docCount = 0;\r\n    address public owner;\r\n\r\n    // Events\r\n    event PolicyRegistered(string indexed policyId);\r\n    event ClaimSubmitted(uint indexed claimId, string indexed policyId);\r\n\r\n    // Constructor to set the deployer as the owner\r\n    constructor() {\r\n        owner = msg.sender;\r\n    }\r\n    \r\n    // Modifier to restrict functions to the owner\r\n    modifier onlyOwner() {\r\n        require(msg.sender == owner, \"Only owner can call this function\");\r\n        _;\r\n    }\r\n\r\n    // Function to register a new policy\r\n    function registerPolicy(string memory _policyId, string memory _insuranceType) public {\r\n        require(!policyExists[_policyId], \"Policy already exists\");\r\n        policies[_policyId] = Policy(_policyId, _insuranceType, PolicyStatus.Active);\r\n        policyExists[_policyId] = true;\r\n        emit PolicyRegistered(_policyId);\r\n    }\r\n\r\n    // Function to submit a claim\r\n    function submitClaim(string memory _policyId, string memory _description, string memory _incidentDate, uint _claimAmount) public {\r\n        require(policyExists[_policyId], \"wrong policy id\");\r\n        require(policies[_policyId].status == PolicyStatus.Active, \"Policy not active\");\r\n        claimCount++;\r\n        claims[claimCount] = Claim(claimCount, _policyId, _description, _incidentDate, _claimAmount, ClaimStatus.Pending);\r\n        emit ClaimSubmitted(claimCount, _policyId);\r\n    }\r\n\r\n    // Function to add a document to a claim\r\n    function addDocument(uint _claimId, string memory _docName) public {\r\n        require(_claimId > 0 && _claimId <= claimCount, \"Invalid claim ID\");\r\n        docCount++;\r\n        documents[docCount] = Document(docCount, _claimId, _docName, DocStatus.PendingVerification);\r\n    }\r\n\r\n    // Function for owner to approve a claim\r\n    function approveClaim(uint _claimId) public onlyOwner {\r\n        require(_claimId > 0 && _claimId <= claimCount, \"Invalid claim ID\");\r\n        claims[_claimId].status = ClaimStatus.Approved;\r\n    }\r\n\r\n    // Function for owner to reject a claim\r\n    function rejectClaim(uint _claimId) public onlyOwner {\r\n        require(_claimId > 0 && _claimId <= claimCount, \"Invalid claim ID\");\r\n        claims[_claimId].status = ClaimStatus.Rejected;\r\n    }\r\n\r\n    // View function to check the status of a policy by ID\r\n    function checkPolicyStatus(string memory _policyId) public view returns (PolicyStatus) {\r\n        require(policyExists[_policyId], \"Policy does not exist\");\r\n        return policies[_policyId].status;\r\n    }\r\n\r\n    // View function to check if a policy exists\r\n    function doesPolicyExist(string memory _policyId) public view returns (bool) {\r\n        return policyExists[_policyId];\r\n    }\r\n}\r\n",
  "sourcePath": "c:\\Users\\Hemapriya\\OneDrive\\Documents\\project file\\blockchain\\contracts\\InsuranceClaims.sol",
  "compiler": {
    "name": "solc",
    "version": "0.8.21+commit.d9974bed.Emscripten.clang"
  },
  "schemaVersion": "3.4.16",
  "updatedAt": "2025-09-23T08:36:34.980Z",
  "networkType": "ethereum",
  "devdoc": {
    "kind": "dev",
    "methods": {},
    "version": 1
  },
  "userdoc": {
    "kind": "user",
    "methods": {},
    "version": 1
  }
}