{
  "contractName": "InsuranceClaims",
  "abi": [
    {
      "anonymous": false,
      "inputs": [
        {
          "indexed": false,
          "internalType": "uint256",
          "name": "claimId",
          "type": "uint256"
        },
        {
          "indexed": false,
          "internalType": "uint256",
          "name": "policyId",
          "type": "uint256"
        },
        {
          "indexed": false,
          "internalType": "address",
          "name": "claimant",
          "type": "address"
        }
      ],
      "name": "ClaimSubmitted",
      "type": "event"
    },
    {
      "anonymous": false,
      "inputs": [
        {
          "indexed": false,
          "internalType": "uint256",
          "name": "policyId",
          "type": "uint256"
        },
        {
          "indexed": false,
          "internalType": "string",
          "name": "details",
          "type": "string"
        },
        {
          "indexed": false,
          "internalType": "address",
          "name": "holder",
          "type": "address"
        }
      ],
      "name": "PolicyRegistered",
      "type": "event"
    },
    {
      "inputs": [],
      "name": "claimCount",
      "outputs": [
        {
          "internalType": "uint256",
          "name": "",
          "type": "uint256"
        }
      ],
      "stateMutability": "view",
      "type": "function",
      "constant": true
    },
    {
      "inputs": [
        {
          "internalType": "uint256",
          "name": "",
          "type": "uint256"
        }
      ],
      "name": "claims",
      "outputs": [
        {
          "internalType": "uint256",
          "name": "claimId",
          "type": "uint256"
        },
        {
          "internalType": "uint256",
          "name": "policyId",
          "type": "uint256"
        },
        {
          "internalType": "string",
          "name": "description",
          "type": "string"
        },
        {
          "internalType": "address",
          "name": "claimant",
          "type": "address"
        },
        {
          "internalType": "bool",
          "name": "isApproved",
          "type": "bool"
        }
      ],
      "stateMutability": "view",
      "type": "function",
      "constant": true
    },
    {
      "inputs": [
        {
          "internalType": "uint256",
          "name": "",
          "type": "uint256"
        }
      ],
      "name": "policies",
      "outputs": [
        {
          "internalType": "uint256",
          "name": "policyId",
          "type": "uint256"
        },
        {
          "internalType": "string",
          "name": "details",
          "type": "string"
        },
        {
          "internalType": "address",
          "name": "holder",
          "type": "address"
        }
      ],
      "stateMutability": "view",
      "type": "function",
      "constant": true
    },
    {
      "inputs": [],
      "name": "policyCount",
      "outputs": [
        {
          "internalType": "uint256",
          "name": "",
          "type": "uint256"
        }
      ],
      "stateMutability": "view",
      "type": "function",
      "constant": true
    },
    {
      "inputs": [
        {
          "internalType": "string",
          "name": "details",
          "type": "string"
        }
      ],
      "name": "registerPolicy",
      "outputs": [],
      "stateMutability": "nonpayable",
      "type": "function"
    },
    {
      "inputs": [
        {
          "internalType": "uint256",
          "name": "policyId",
          "type": "uint256"
        },
        {
          "internalType": "string",
          "name": "description",
          "type": "string"
        }
      ],
      "name": "submitClaim",
      "outputs": [],
      "stateMutability": "nonpayable",
      "type": "function"
    },
    {
      "inputs": [
        {
          "internalType": "uint256",
          "name": "claimId",
          "type": "uint256"
        }
      ],
      "name": "approveClaim",
      "outputs": [],
      "stateMutability": "nonpayable",
      "type": "function"
    }
  ],
  "bytecode": "0x608060405234801561001057600080fd5b50610c6c806100206000396000f3fe608060405234801561001057600080fd5b506004361061007d5760003560e01c8063a7aa26ab1161005b578063a7aa26ab146100d8578063a888c2cd146100f4578063d3e8948314610128578063de54d4291461015a5761007d565b806345b465251461008257806346e301351461009e5780638da4d3c9146100ba575b600080fd5b61009c600480360381019061009791906107fb565b610178565b005b6100b860048036038101906100b391906107d2565b610367565b005b6100c2610399565b6040516100cf9190610915565b60405180910390f35b6100f260048036038101906100ed9190610791565b61039f565b005b61010e600480360381019061010991906107d2565b6104ae565b60405161011f9594939291906109a5565b60405180910390f35b610142600480360381019061013d91906107d2565b610599565b60405161015193929190610930565b60405180910390f35b61016261066b565b60405161016f9190610915565b60405180910390f35b3373ffffffffffffffffffffffffffffffffffffffff166002600084815260200190815260200160002060020160009054906101000a900473ffffffffffffffffffffffffffffffffffffffff1673ffffffffffffffffffffffffffffffffffffffff161461021c576040517f08c379a0000000000000000000000000000000000000000000000000000000008152600401610213906108f5565b60405180910390fd5b6001600081548092919061022f90610b38565b91905055506040518060a0016040528060015481526020018381526020018281526020013373ffffffffffffffffffffffffffffffffffffffff16815260200160001515815250600360006001548152602001908152602001600020600082015181600001556020820151816001015560408201518160020190805190602001906102bb929190610671565b5060608201518160030160006101000a81548173ffffffffffffffffffffffffffffffffffffffff021916908373ffffffffffffffffffffffffffffffffffffffff16021790555060808201518160030160146101000a81548160ff0219169083151502179055509050507f9fe11e531030a058803617055e27f9f4768236e4322e13b9c4c09f4338e23a68600154833360405161035b9392919061096e565b60405180910390a15050565b60016003600083815260200190815260200160002060030160146101000a81548160ff02191690831515021790555050565b60015481565b6000808154809291906103b190610b38565b9190505550604051806060016040528060005481526020018281526020013373ffffffffffffffffffffffffffffffffffffffff168152506002600080548152602001908152602001600020600082015181600001556020820151816001019080519060200190610423929190610671565b5060408201518160020160006101000a81548173ffffffffffffffffffffffffffffffffffffffff021916908373ffffffffffffffffffffffffffffffffffffffff1602179055509050507fad1a3aa49731daf0bb7d42badbc2551d9b33fb05408fe89a2b1ce9aa08c93c4860005482336040516104a393929190610930565b60405180910390a150565b60036020528060005260406000206000915090508060000154908060010154908060020180546104dd90610b06565b80601f016020809104026020016040519081016040528092919081815260200182805461050990610b06565b80156105565780601f1061052b57610100808354040283529160200191610556565b820191906000526020600020905b81548152906001019060200180831161053957829003601f168201915b5050505050908060030160009054906101000a900473ffffffffffffffffffffffffffffffffffffffff16908060030160149054906101000a900460ff16905085565b60026020528060005260406000206000915090508060000154908060010180546105c290610b06565b80601f01602080910402602001604051908101604052809291908181526020018280546105ee90610b06565b801561063b5780601f106106105761010080835404028352916020019161063b565b820191906000526020600020905b81548152906001019060200180831161061e57829003601f168201915b5050505050908060020160009054906101000a900473ffffffffffffffffffffffffffffffffffffffff16905083565b60005481565b82805461067d90610b06565b90600052602060002090601f01602090048101928261069f57600085556106e6565b82601f106106b857805160ff19168380011785556106e6565b828001600101855582156106e6579182015b828111156106e55782518255916020019190600101906106ca565b5b5090506106f391906106f7565b5090565b5b808211156107105760008160009055506001016106f8565b5090565b600061072761072284610a30565b6109ff565b90508281526020810184848401111561073f57600080fd5b61074a848285610ac4565b509392505050565b600082601f83011261076357600080fd5b8135610773848260208601610714565b91505092915050565b60008135905061078b81610c1f565b92915050565b6000602082840312156107a357600080fd5b600082013567ffffffffffffffff8111156107bd57600080fd5b6107c984828501610752565b91505092915050565b6000602082840312156107e457600080fd5b60006107f28482850161077c565b91505092915050565b6000806040838503121561080e57600080fd5b600061081c8582860161077c565b925050602083013567ffffffffffffffff81111561083957600080fd5b61084585828601610752565b9150509250929050565b61085881610a7c565b82525050565b61086781610a8e565b82525050565b600061087882610a60565b6108828185610a6b565b9350610892818560208601610ad3565b61089b81610c0e565b840191505092915050565b60006108b3601583610a6b565b91507f4e6f742074686520706f6c69637920686f6c64657200000000000000000000006000830152602082019050919050565b6108ef81610aba565b82525050565b6000602082019050818103600083015261090e816108a6565b9050919050565b600060208201905061092a60008301846108e6565b92915050565b600060608201905061094560008301866108e6565b8181036020830152610957818561086d565b9050610966604083018461084f565b949350505050565b600060608201905061098360008301866108e6565b61099060208301856108e6565b61099d604083018461084f565b949350505050565b600060a0820190506109ba60008301886108e6565b6109c760208301876108e6565b81810360408301526109d9818661086d565b90506109e8606083018561084f565b6109f5608083018461085e565b9695505050505050565b6000604051905081810181811067ffffffffffffffff82111715610a2657610a25610bdf565b5b8060405250919050565b600067ffffffffffffffff821115610a4b57610a4a610bdf565b5b601f19601f8301169050602081019050919050565b600081519050919050565b600082825260208201905092915050565b6000610a8782610a9a565b9050919050565b60008115159050919050565b600073ffffffffffffffffffffffffffffffffffffffff82169050919050565b6000819050919050565b82818337600083830152505050565b60005b83811015610af1578082015181840152602081019050610ad6565b83811115610b00576000848401525b50505050565b60006002820490506001821680610b1e57607f821691505b60208210811415610b3257610b31610bb0565b5b50919050565b6000610b4382610aba565b91507fffffffffffffffffffffffffffffffffffffffffffffffffffffffffffffffff821415610b7657610b75610b81565b5b600182019050919050565b7f4e487b7100000000000000000000000000000000000000000000000000000000600052601160045260246000fd5b7f4e487b7100000000000000000000000000000000000000000000000000000000600052602260045260246000fd5b7f4e487b7100000000000000000000000000000000000000000000000000000000600052604160045260246000fd5b6000601f19601f8301169050919050565b610c2881610aba565b8114610c3357600080fd5b5056fea2646970667358221220ea8b1ed5c15744bc1b0ab7690cd3b4a4c04da631c1a0388d8cfcd8bb6c8763c264736f6c63430008000033",
  "immutableReferences": {},
  "source": "// SPDX-License-Identifier: MIT\r\npragma solidity ^0.8.0;\r\n\r\ncontract InsuranceClaims {\r\n    struct Policy {\r\n        uint policyId;\r\n        string details;\r\n        address holder;\r\n    }\r\n\r\n    struct Claim {\r\n        uint claimId;\r\n        uint policyId;\r\n        string description;\r\n        address claimant;\r\n        bool isApproved;\r\n    }\r\n\r\n    uint public policyCount;\r\n    uint public claimCount;\r\n    mapping(uint => Policy) public policies;\r\n    mapping(uint => Claim) public claims;\r\n\r\n    event PolicyRegistered(uint policyId, string details, address holder);\r\n    event ClaimSubmitted(uint claimId, uint policyId, address claimant);\r\n\r\n    function registerPolicy(string memory details) public {\r\n        policyCount++;\r\n        policies[policyCount] = Policy(policyCount, details, msg.sender);\r\n        emit PolicyRegistered(policyCount, details, msg.sender);\r\n    }\r\n\r\n    function submitClaim(uint policyId, string memory description) public {\r\n        require(policies[policyId].holder == msg.sender, \"Not the policy holder\");\r\n        claimCount++;\r\n        claims[claimCount] = Claim(claimCount, policyId, description, msg.sender, false);\r\n        emit ClaimSubmitted(claimCount, policyId, msg.sender);\r\n    }\r\n\r\n    function approveClaim(uint claimId) public {\r\n        // For demo, anyone can approve. You can add role checks.\r\n        claims[claimId].isApproved = true;\r\n    }\r\n\r\n    // Add more functions as needed (register appraiser, adjuster, etc.)\r\n}\r\n",
  "sourcePath": "C:\\Users\\Hemapriya\\OneDrive\\Documents\\project file\\contracts\\InsuranceClaims.sol",
  "compiler": {
    "name": "solc",
    "version": "0.8.0+commit.c7dfd78e.Emscripten.clang"
  },
  "schemaVersion": "3.4.16",
  "updatedAt": "2025-09-16T05:09:43.222Z",
  "networkType": "ethereum",
  "devdoc": {
    "kind": "dev",
    "methods": {},
    "version": 1
  },
  "userdoc": {
    "kind": "user",
    "methods": {},
    "version": 1
  }
}